:020000040000FA
:100000000F30650003016600050803193428050850
:10001000013C031937280508023C03193A28050852
:10002000033C03193D280508043C03194028050832
:10003000053C031943280508063C03194628050812
:10004000073C031949280508083C03194C280508F2
:10005000093C03194F2805080B3C031986170508AE
:100060000D3C0319861304287730860004282430B9
:10007000860004285D30860004286D308600042840
:100080002E30860004286B30860004287B308600E2
:1000900004282530860004287F30860004286F302D
:0400A00086000428AA
:02400E00F33F7E
:00000001FF
